:020000041000EA
:1000000000B5324B212058609868022188439860DF
:10001000D860186158612E4B002199600221596106
:100020000121F02299502B49196001219960352056
:1000300000F044F80222904214D00621196600F024
:1000400034F8196E01211966002018661A6600F04E
:100050002CF8196E196E196E052000F02FF8012189
:100060000842F9D1002199601B49196000215960AB
:100070001A491B48016001219960EB211966A021F2
:10008000196600F012F800219960164914480160C1
:100090000121996001BC002800D000471248134993
:1000A000086003C880F30888084703B5996A0420EC
:1000B0000142FBD001200142F8D103BD02B5186610
:1000C0001866FFF7F2FF186E186E02BD00000240BE
:1000D000000000180000070000035F00212200005C
:1000E000F4000018222000A00001001008ED00E03C
:1000F00000000000000000000000000074B24E7A12
:1001000000200420F7010010C3010010C5010010F9
:10011000C1010010C1010010C1010010C101001097
:10012000C1010010C1010010C1010010C701001081
:10013000C1010010C1010010C9010010CB01001065
:10014000CD010010CD010010CD010010CD01001037
:10015000CD010010CD010010CD010010CD01001027
:10016000CD010010CD010010CD010010CD01001017
:10017000CD010010CD010010CD010010CD01001007
:10018000CD010010CD010010CD010010CD010010F7
:10019000CD010010CD010010CD010010CD010010E7
:1001A000CD010010CD010010CD010010CD010010D7
:1001B000CD010010CD010010CD010010CD010010C7
:1001C00000BE00BE00BE00BE00BE00BEEFF3058054
:1001D000103800BEF2EB8871948C0510B88C0510B5
:1001E0003402001090A31AE700201F49086006C8D7
:1001F00081F3088810471D48006800282FD10DA4FE
:100200000ECC002902D000F012F8F9E71849194A7B
:10021000002000E001C19142FCD1174988471749ED
:1002200088471749884700BEFDE701C901C29A42C5
:10023000FBD37047B88C0510C0000020E00B0020F5
:10024000D89705100000042000000420D89705105E
:10025000001004200010042000000000704709482E
:1002600003F022FA0047000008ED00E0000000D093
:10027000E00B00201C280020D91D001035030010C1
:10028000FD1E00105756000006005250ABB36053DD
:10029000809B011006005250861C0302909B0110A7
:1002A000060052505422A29D9C9B01100500525002
:1002B000DE65F468D8970510F8B5C046044B10B554
:1002C000002B03D00349044800E000BF10BDC04626
:1002D0000000000084230020A898011000B587B01A
:1002E00007F0F2FA104B04A81A6804926A469B8839
:1002F000938207F0BFFB0023C821C8200293073375
:10030000019304AB0322009309010123C00007F00D
:1003100045FF064B0649187812F0F4FD012012F053
:100320003FFE07B000BDC046A89801107805002028
:100330007C05002010B503F0BDFF13F09BFC041EEC
:100340000AD10EF065FFFFF7C9FF012012F02EFD64
:100350000FF084F8200010BD0124024803F09EFF36
:100360006442F7E7B0980110094A10B5944640245A
:10037000830063441A68C0006240803414408022C5
:10038000520113431C60034B9C466044416010BD06
:1003900004C0014000400140074B80009C4660447F
:1003A0000368C90092000A435A400C231A40802374
:1003B0005B0103431A60704704C00140084B800092
:1003C0009C466044002905D0802302229B01034300
:1003D0001A607047C02302229B0103431A60F8E7AA
:1003E00004C00140D0231B061B6830B505005842ED
:1003F00043412F205B4283430D48EC08844607208D
:1004000028408000814020000A4D3C306344800039
:10041000A40041511B19002A04D0802292011343E9
:10042000196030BDC022920113431960F9E7C0463C
:100430003041014000400140D023F0B5C6461B06C4
:1004400098461B680C4F9B001600FA5804000D00DC
:1004500000B5104209D1290014430D203200FC5090
:1004600000F04AF980BCB846F0BD01F063FD434698
:100470001B689B00FA58EEE7AC23002010B504007F
:100480000D2000F029FAD0231B061B6802499B00AF
:100490005A58A2435A5010BDAC2300200123D02249
:1004A0008340120693629361094A40219446830077
:1004B00063441A68C0004A408031114080225201D2
:1004C00013431960034B9C46052360444360704707
:1004D00004C0014000400140024B18688007C00F73
:1004E0007047C04600C00640EFF3108072B6034A62
:1004F0001368002BFCD0BFF35F8F70472C0100D036
:10050000BFF35F8F0022024B1A6080F310887047A0
:100510002C0100D070B5EFF3108C72B60D4D2B6826
:10052000002BFCD0BFF35F8F0724CB08C618C05C3C
:1005300001230C40A3401C000440034207D1184390
:100540003070BFF35F8F2C608CF3108870BD10008B
:1005500001F0D8FC2C0100D0F8B54746CE468846BD
:1005600080B5EFF3108C72B6214D2C68002CFCD0B6
:10057000BFF35F8F9A422CD8D4080727055D061970
:1005800001241740BC402C421FD007210127894677
:1005900009E0D408055D06194C4639001440A14015
:1005A0000C00294211D001329342F2D20120404284
:1005B000BFF35F8F00220E4B1A608CF31088002867
:1005C0000FDBC0BCB946B046F8BD254310003570FE
:1005D000EEE7BFF35F8F00232B608CF310880120C0
:1005E00040424346002BECD0089801F08BFCC046FB
:1005F0002C0100D030B5EFF3108C72B60A4C236892
:10060000002BFCD0BFF35F8F072301220B409A40E1
:10061000CD08435D93434355BFF35F8F00232360B1
:100620008CF3108830BDC0462C0100D00021044B53
:10063000044ABFF35F8F02C39342FAD17047C046AA
:10064000000100D0800100D0044A1078431CDBB2C6
:10065000172B00D9102313707047C0469B0500204C
:1006600001238340002904D0034A1360034A136026
:100670007047034A1360FBE780E200E000E100E01E
:1006800080E100E001238340014A13607047C046C7
:1006900000E200E0024B10309B688000C0587047B9
:1006A00000ED00E070B50D00EFF3108672B60F4A52
:1006B0001368002BFCD0BFF35F8F0D4B10309B688D
:1006C00084001B590B4A934203D09D4201D001F094
:1006D00031FC074B9B681D51BFF35F8FBFF35F8FEA
:1006E0000022024B1A6086F3108870BD240100D0EE
:1006F00000ED00E0CD010010F0B54E464546DE4667
:100700005746E0B583B0060000919046EFF3108B9A
:1007100072B6654A1368002BFCD0BFF35F8F0025CB
:10072000624B5D579A46002D00DA79E052466B0025
:100730005F4C5F19BF000193E31999469B7910360E
:1007400013705C4BB6009B6899590B1B2F2B33D948
:10075000594B994200D07CE0019B02379C46574B95
:100760006544AD006353564BE719043BDB1B554A08
:100770001B055B0D651913436B80534B0121AB8047
:10078000FF23AB714346EB71009BAB604B460B43C1
:100790001900484B9B689951BFF35F8FBFF35F8F80
:1007A0000022414B1A608BF3108803B0F0BCBB46AB
:1007B000B246A946A046F0BD01200A008243D37983
:1007C000434549D9BC464746884607E05800C0180B
:1007D00080002018C179B94228D902000623D356D7
:1007E000002BF3DA9A46131D9C464146B846374F14
:1007F000484663460438C01A0005324B400D184382
:10080000019B908095715A1953469200A418A371C8
:1008100043462F4AE371009B2260A780A360B8E79C
:1008200001F088FB002553465D577FE79A46414615
:10083000131DB84667469C4690880437400500154E
:10084000E7196044C01BE0270005400D3F02074345
:10085000CEE701F06FFB7FE713001E491B1B5B41D6
:100860005943090D154BBD1CE353154B6519043B4A
:100870005B1B1B05134D5B0D2B43AC464D466B803C
:1008800065460437131FE719DB1B1B055B0D1D4372
:100890004B4699714146D97100999D8099604946AE
:1008A0000B4B0143136074E7240100D0072800209C
:1008B0009C05002000ED00E0CD01001000A1FFFF2D
:1008C000CC05002000E0FFFF01BDFFFF01BD0000DF
:1008D00001488047AAAA0000F0B5DE4657464E46BA
:1008E0004546E0B50C0083B0EFF3108872B65D4A60
:1008F0001368002BFCD0BFF35F8F5B4B5B499A689A
:10090000030010339F00D5598D4239D0A5424AD0FB
:10091000574EAA1B2F2A33D8012292468240914675
:100920004846544A1268104001904846524A1060A6
:10093000BFF35F8FEFF305829346002A35D09342D1
:1009400001D001F0F7FA2A0053469A439068844296
:1009500008D175E04B005B189B00F3189868A04223
:1009600034D01A00062151560029F3DA844253D0BC
:10097000019B002B26D04A46404B1A603D4B1A6023
:10098000394B9B68DD51BFF35F8FBFF35F8F002250
:10099000344B1A6088F3108803B0F0BCBB46B246F3
:1009A000A946A046F0BD0D00EAE72A0053469A4347
:1009B00090688442D6D1062010561300002809DA28
:1009C0000D0031E04A462C4B1A60D9E70620185634
:1009D000002822DB42001118890074188A46A16899
:1009E0009960E179D971062161569971002925DB59
:1009F000A488F11A6405241554440919E024090552
:100A0000490D24022143998013181D4A9B00117837
:100A1000F31899711070ABE713005946002914D1EF
:100A2000FF3191711749918015490A789A71164AD8
:100A30009B1B5B415A43120D0A7099E71349E2E789
:100A40000620105613000028C4DA114A1149D21AA0
:100A5000083A5002400D014399800F4952080A4359
:100A6000DA8085E7240100D000ED00E0CD01001020
:100A70009C05002000E100E080E100E080E200E071
:100A80000728002001BDFFFFAAAA000001BD000049
:100A9000D605002000F0FFFF00F8FFFF032310B58C
:100AA0000400074A18409446C0009C43FC3383402E
:100AB0006444226881409A4313000B43236010BDB5
:100AC00000E400E070B5EFF3058101240443EFF387
:100AD000108C72B6214A1368002BFCD0BFF35F8FD5
:100AE0001F4B05001F4AED1A6D416A43120D1E4D42
:100AF0008900AE6852B27658A6421CD006215956DB
:100B000091421CD012215956914222D01E21595691
:100B1000914220D02A2159560324914210D0134BE0
:100B200019781A708171BFF35F8F00220B4B1A6026
:100B30008CF3108870BDAB680D4C5C50EFE700245F
:100B40006100091989005B18FF2199710949998091
:100B5000E5E70124F4E70224F2E7C046240100D0CF
:100B60009C050020AAAA000000ED00E00728002054
:100B7000CD01001001BDFFFF054B064A1360064A78
:100B8000136053609360D360136153619361704746
:100B90008080808000E400E004E400E01F2110B5C4
:100BA000091A0248FFF726FD10BDC046182800208C
:100BB00010B5084B084C82B00100009300220523B9
:100BC0002000FFF7C9FC002801DB1F23181A02B020
:100BD00010BDC046D09801101828002070B5040040
:100BE0000E001500FFF730FD0100200000F006F8B0
:100BF000A680E580BFF35F8F70BDC046024B9C4668
:100C000061448900016070474000003410B5040061
:100C1000FFF71AFD01002000FFF7F0FFFF2323710B
:100C2000BFF35F8F10BDC04610B50400FFF70CFD89
:100C300001002000FFF7E2FFFF23A380BFF35F8FD7
:100C400010BDC04683680B4810B5844661446244B9
:100C50001201090159189B185C684A6801209442E6
:100C600001D802D00020C0B210BD1A680B689A42A9
:100C7000F9D8F7E7FFFFFF0F0A4B1968EFF3108071
:100C800072B60A68002AFCD0BFF35F8F1B68BFF3FF
:100C90005F8F00221A6080F3108840BF002000217F
:100CA0007047C046C0240020F8B5574645464E461A
:100CB000DE46E0B598460CAB1C780DAB1B78070000
:100CC00091469A460568002C5AD1AC7B002C3BD04B
:100CD000660029683619033E89194B78AB73002BDF
:100CE00000D1EB7300238B704B700B702B4BE21811
:100CF000BB6812019B184A461A6042465A600A9A1B
:100D00009A600B9ADA6000238B704B700B706B7BD0
:100D10009B46002B27D022006B685946A86898474D
:100D20005B465B005B442A68033B002812D05846B0
:100D30009619B070D118D35C002B00D073705B464D
:100D40000C706B735C450FD0F0BCBB46B246A94635
:100D5000A046F8BDD3189C709119925D002A00D06E
:100D60005A705B460B706C734A464346387D00F000
:100D700099FB051E0AD10E9B002BE5D01D70E3E701
:100D8000660029683619033E8919AFE75346002BE0
:100D9000F1D12100386800F0A3FDECE7FFFFFF0F61
:100DA000F0B5DE4657464E4645460023E0B58BB0CB
:100DB0000893674B8200D45800239B46099000F0AB
:100DC00011FB02000B006068EFF3108A72B6564602
:100DD00001680029FCD0B246BFF35F8F21684F7BCA
:100DE0008C46002F2ED0A5685A49A94679180901CA
:100DF000894449460868496805000E00AD1A9E41BD
:100E0000002E5FDD02000B00099800F04BFB002371
:100E100000229946002306920793002398466368B0
:100E2000BFF35F8F5A461A608AF310884346002B3F
:100E300012D10028C3D10BB0F0BCBB46B246A946C4
:100E4000A046F0BD00230022994600230692079396
:100E5000002300209846E2E7089B494618023843E1
:100E6000C047626805000E00EFF3108A72B613687F
:100E7000002BFCD0BFF35F8F002E40DB2B003343F1
:100E800002D02369002B55D12368D97B002905D0D6
:100E90001A68480041185218033A57709A7B002A82
:100EA00000D19F73DF73E268013FD35D0133D355F7
:100EB0005B4623616368BFF35F8F5A461A608AF30B
:100EC00010887CE7002E01D1002D9BD100216046C7
:100ED00000F084FC4B461A685B68069207934B4609
:100EE0009B6898464B46DB689946E368DB19013BF3
:100EF0001B7808931B020343236100208FE72369BB
:100F0000002BC1D0069A079B8021521BB3410906D2
:100F10008B4202D30122104B524200210491013135
:100F20000391494601914146200002970091FFF745
:100F3000BBFEBDE700F056FA2A00330012184B4101
:100F4000802109068B42E8D30122034B5242E4E799
:100F50009C230020FFFFFF0FFFFFFF7F10B5144C05
:100F60006368002B04D00A211248FFF747FE10BD2A
:100F70002300114A1021206800F04CFB032000F0F0
:100F800025FA032000F0FCFA03200C4900F044FA93
:100F9000FFF75AFB0A4B9C4603232375D0231B06FD
:100FA0001B6860446375074B80006060DC60DAE7B3
:100FB000E4050020C0240020450C0010A10D001005
:100FC000400000349C23002000487047E4050020C6
:100FD000F0B557464E464546DE46E0B585B001932E
:100FE00010AB1B780600039300239A4698460092A4
:100FF0007268EFF3108B72B61368002BFCD0BFF34E
:101000005F8F3568AC7B002C00D16DE067002B68EA
:101010003F19033FDB195A78AA73002A00D1EA73FB
:10102000484AA118B2680901521800980199106045
:1010300051600E9991600F99D16042469A705A7032
:101040001A706B7B9946002B6BD022006B68494667
:10105000A86898474B465B004B442A68033B00282E
:1010600056D04846D719B870D118D35C002B00D0A1
:101070007B704B460C706B734C4553D0F3681B1957
:10108000013B18787368BFF35F8F42461A608BF399
:1010900010885346002B08D10002204305B0F0BC55
:1010A000BB46B246A946A046F0BD039B002B46D0E6
:1010B0000E9B00200F99984703000B433FD004007C
:1010C0000D1E1ADA009A019B121BAB41009201938C
:1010D00080221206934204D301231B4C5B420093EF
:1010E0000194039B9A4683E77368BFF35F8F1C608C
:1010F0008BF3108801204042D0E700F073F9802282
:10110000001969411206009001919142E9D3E3E789
:10111000D3189C70D119D25D002A00D05A704B466A
:101120000B706C73307D009A019B00F0BBF9824616
:101130000028A3D02100306800F0D2FB9EE70020F9
:10114000ACE7C046FFFFFF0FFFFFFF7FF8B50B00C6
:1011500004004168EFF3108572B60A68002AFCD0DB
:10116000BFF35F8FFF222068D9B2467B1A408E42C0
:1011700007D006685700BF18F619033EB678002E50
:1011800010D0E6681B0AB218013A1278DBB29A4214
:101190000DD000206368BFF35F8F00221A6085F3D3
:1011A0001088F8BD22699A42F3D12661F1E700F078
:1011B00097FBEFE7F0B504000D0006267642F7171F
:1011C000C64636196F4100B584B08F4214D811D08D
:1011D00000F008F932003B00121A8B41002B15DC9D
:1011E000002B3ED02000290000F006F904B080BC9E
:1011F000B846F0BD8642EBD90026002700F0F2F891
:1012000032003B00121A8B41002BE9DD00230293D0
:101210000193154B3200009314483B00FFF7D8FEB2
:101220000028DFDB00239846BC46114A114F7B6A39
:101230009C4504D8B96AB142D4D29C45D2D1116838
:10124000EFF3108072B60B68002BFCD0BFF35F8FFA
:101250001368BFF35F8F4146196080F3108820BF89
:10126000E5E7002ABED0D1E7790C0010E4050020A4
:10127000C02400200040054070B5060000F0B2F820
:10128000FA2204000D00002330000021920002F039
:10129000D3FD8023001969411B06994202D3012026
:1012A00002494042FFF786FF70BDC046FFFFFF7F47
:1012B00070B5EFF3058305000C0084B0002B0FD050
:1012C000104A0020536AA34203D3926A0130AA4213
:1012D00001D304B070BD1B1B5A1E9341D8B2F8E76E
:1012E000094E02930193094B0200009330000B005A
:1012F000FFF76EFE011EE3DD20BF3000FFF726FF83
:10130000DEE7C04600400540E4050020790C0010EF
:10131000F0B5EFF30582D6464F4646461000C0B5FD
:101320001038EFF3108872B6214C2368002BFCD0E4
:10133000BFF35F8F0123190081401E4D1F006963B9
:10134000AA461D4D29601D4D2E78AC463500C5407E
:101350002F402B4215D053465F6A194B8500EB583E
:101360009F4218D36246174B8E43EB581670BFF35B
:101370005F8F0022226088F31088002B06D09847E8
:1013800004E0BFF35F8F276088F31088E0BCBA46A3
:10139000B146A846F0BD0C4B92009C4662441368CF
:1013A0001360BFF35F8F0023236088F31088EDE79D
:1013B000280100D0004005403C700540172800205F
:1013C000DC25002078110020D03F054010B5034BEC
:1013D00001001800024AFFF79DF810BD0228002006
:1013E000F8980110034B596A0A00986A596A8A42B0
:1013F000FAD1704700400540064A536A9942FCD82A
:1014000007D1044B02E05A6A914202D19A6A8242A1
:10141000F9D370470040054070B504000D00EFF3AC
:10142000108672B61A4A1368002BFCD0BFF35F8F88
:10143000002D1BD02000FFF72DF9164981420AD05C
:101440002000FFF72FF901212000FFF709F9012300
:10145000A340114A1360114BA400E550BFF35F8F06
:1014600000220B4B1A6086F3108870BD0121A14049
:101470000A4BA200D5500A4B20001A788A4305492E
:101480001A70FFF729FA00212000FFF7E9F8E5E7D5
:10149000280100D011130010386005407811002099
:1014A00017280020F0B54F46D6464646C0B507007F
:1014B0002E4C616A0D00A66A616AA942FAD18B427C
:1014C00008D805D00120E0BCBA46B146A846F0BD18
:1014D000B242F7D9EFF3108A72B6254801680029A5
:1014E000FCD0BFF35F8F0125BD4022491F4C8846C9
:1014F000097889462943C9B28C464146604608703E
:10150000391D890065630A511B49B8004350216A9F
:101510000020294219D0616A0800A66A616A8142E6
:10152000FAD18B4219D801D1B24216D8CC450BD092
:101530000E4B1F221D625D6301233A4093400F4A08
:10154000136043464A461A700120BFF35F8F0022A2
:10155000074B1A608AF31088B5E70020BFF35F8F4E
:101560000022034B1A608AF31088ACE70040054064
:10157000280100D017280020DC25002080E200E0B0
:10158000EFF3108C72B60A490B68002BFCD0BFF346
:101590005F8F01238340074A0748136202789A430A
:1015A0000270BFF35F8F00230B608CF310887047CD
:1015B000280100D0004005401728002070B5060023
:1015C0000D00140000291DD0002A12D07368806815
:1015D000984762006B0012195B193168033A033BAC
:1015E000002808D08A189570C818CB5C002B0BD146
:1015F0000470280070BDCB189C7088188A5C002A83
:1016000005D105702000F5E753700470F1E75A70BA
:101610000570F7E710B583600023CCB24373013344
:10162000426004738373C4730068421C012C05D9A3
:101630000133DBB2137003329C42F9D1FF230B401C
:101640005A00D318C01800230338437010BDC04699
:1016500070B505000C1E07D0630001681B19033B21
:10166000CB185A78002A01D1200070BD5000801894
:101670000338091800204E7848702100587028005F
:10168000FFF79CFF310004002800FFF7E1FF060090
:10169000002C20D00028E7D0320021006B68A86819
:1016A00098477200630092191B192968033A033B9B
:1016B000002808D08A189470C818CB5C002B00D082
:1016C00053700670D0E7CB189E7088188A5C002A89
:1016D00000D05A7004703400C6E7C046F0B55746D3
:1016E0004546DE464E46E0B50D006F0001687F19A5
:1016F000033F0400C85D83B00192CA19002850D08E
:1017000043001B18033BCB185E78B446002E1AD159
:10171000019E002E42D0E67B002E04D073009B1960
:10172000CB18033B5D70A37B002B00D1A573E57341
:1017300000282FD10023537003B0F0BCBB46B24643
:10174000A946A046F0BD72006244033A8A18517857
:1017500088460021517089465970320001002000EE
:10176000FFF72CFF43468246002B07D05B00216821
:101770004344033BCB185A78002A16D142465146BF
:101780002000FFF71BFF2168019BCA19002BC2D163
:101790000028CFD043001B18033BCB1800219970C1
:1017A000C8E7019B002BB6D1C4E75000801803386E
:1017B00009184878834648464870587041462000CA
:1017C000FFF7FCFE594680462000FFF741FF4146E7
:1017D00002002000FFF7F2FE8046CFE7F0B5574643
:1017E0004546DE464E46E0B583B00191457B040098
:1017F0006F0000687F19033FC15DC219002952D0F4
:101800004B005B18033BC3185E78B446002E1CD116
:10181000019E002E44D0E67B002E04D073009B195D
:10182000C318033B5D70A37B002B00D1A573E57348
:10183000002931D1002328005370617303B0F0BC3C
:10184000BB46B246A946A046F0BD72006244033AC8
:1018500082185078804600205070814658703200BF
:101860002000FFF7ABFE43468246002B07D05B000B
:1018700021684344033BCB185A78002A17D14246CB
:1018800051462000FFF79AFE019B01002068C21913
:10189000002BC0D10029CDD04B005B18033BC318EF
:1018A00000209870C6E7019B002BB4D1C2E750001E
:1018B000801803380918487883464846487058709D
:1018C00041462000FFF77AFE594680462000FFF788
:1018D000BFFE414602002000FFF770FE8046CEE7C3
:1018E00070B5050000292CD0437B8B422ED04C00D4
:1018F00000686418033C0419A278002A21D0530020
:101900009B18033BC25CC6188A4202D11BE0002A26
:1019100008D053009B18033BC3185A788A42F6D16B
:1019200062785A70002301222800A3706370FFF7C9
:10193000D5FE697B02002800FFF740FE6873012096
:1019400000E0002070BD63783370EBE701221900DE
:10195000FFF7C4FEF2E7C046F8B5040006200D000C
:1019600000F0C4F9002844D02A4B2B49E218534216
:101970005A418023DB039C469205284B62441A603F
:10198000274B1A6010008B689843FBD1214B254AE6
:10199000E31859424B4180215B00490006209952CF
:1019A00000F0A4F92900C00001F0D8FEC30921D13C
:1019B00040270121260080256162A36200232C3686
:1019C000AD0135432B60062000F090F9390080000E
:1019D00001F0C4FE6022E36A53400E321A408023B5
:1019E0005B0133431A60104B236310232B600D3BC4
:1019F000A364F8BD0D4A934203D900230C4F0D494F
:101A0000D8E77F220240013252089F011900BF1817
:101A10001300CFE70080FCBF00C0004000E00040A2
:101A200000F000402C27002001030000FEFF000012
:101A3000C0FF3F00FFFF000010B50C2082B000F097
:101A4000AFF9FEF749FD002810D0864B864886493D
:101A5000864A186059609860D96018615961986128
:101A6000D961186259625A6202B010BD804CA067F9
:101A700000F09EF901227F4B1A60636C012BFCD1B0
:101A800003227D4B1A607A4A936B012BFCD1013300
:101A900001217A4A7A480093043300F02DF9052396
:101AA000784A00930121784800F026F9774B5A686C
:101AB000FF2A02D8802252005A6080226E4B694C65
:101AC00012011A602169002905D0606901F046FE03
:101AD00001300138FDD1E0226C4B6D4819680A4095
:101AE000026002221968514001320A40042102605A
:101AF0009A681142FCD08021664A09011160802257
:101B000052005A60644B2361644B5968FF2900D826
:101B10005A6003220121574B1A60604A93681942A8
:101B2000FCD0E023106803405D4803601268032383
:101B30004A4002211340594A036093681942FCD07D
:101B40008021584B090119608021574B4900516091
:101B50006361564B5A68FF2A00D859608022544B63
:101B600012011A60E169002905D0606901F0F6FDF3
:101B700001300138FDD1E0234C4A11680B404D493A
:101B80000B6080214C4B090119608021364B4900C4
:101B90005160E361494B5A68FF2A00D8596080229E
:101BA000474B12011A60216A002905D0606901F0D3
:101BB000D5FD01300138FDD1E023404A11680B40CA
:101BC00040490B608021404B0901196080235B0074
:101BD00053608022244BD20223623C4B59689142CD
:101BE00000D25A6080223A4B12011A60616A0029C1
:101BF00005D0606901F0B2FD01300138FDD1E0236C
:101C0000324A11680B4033490B608021324B090185
:101C100019608023DB025360144B63622F4B5A68B8
:101C2000FF2A02D8802252005A6080222C4B1201D7
:101C30001A60A169002905D0606901F08FFD0130AB
:101C40000138FDD1E023254A11680B4025490B607E
:101C50008021254B0901196080235B005360124BE2
:101C6000A36101E7F80B0020006CDC021BB7000049
:101C7000008000403CB0004030B00040002F685968
:101C800000800240008C864700C002403080004047
:101C90003090004030A00040001BB7003C80004066
:101CA0003C9000403CA000404059730754800040E5
:101CB00054B000405490004054A000406080004068
:101CC00060B000406090004060A000406C80004028
:101CD0006CB000406C9000406CA000404880004018
:101CE00048B000404890004048A00040014B8000B0
:101CF000C0587047F80B0020F8B504000C201700FE
:101D00001D000E0001F02AFD43011B1A9901C91A9A
:101D1000C90009188901380001F020FD069B29043B
:101D20001B0319432368002B20DB194B194DE318C3
:101D30005A4253418022520194461B03164A63447F
:101D40001360164A13601F00AA689743FBD1C02393
:101D5000221D9B01134321222660A0601A60226885
:101D6000002AFCDA0822E1601A60F8BD3F232268ED
:101D70001340B342D9D1A3681B051B0D8342D4D1B4
:101D8000EE22E368D20213408B42CED1EDE7C0468B
:101D90000040FDBF00C0004000E0004000F00040F7
:101DA0008023024A9B000343D362704700800540B2
:101DB000AA23064A1B0113602F230549D360054B54
:101DC00019605368002BFCDA7047C046004002409F
:101DD00000B0FA00006002402B4B2C4A70B51A602C
:101DE0002B4A2C4B2C491A6014008B689C43FBD166
:101DF0002A4D2B4EB54208D2013E761BB60808CDBF
:101E0000984723000134B342F9D1FFF715FE254A64
:101E1000204B1A60204A9368DB43DB01DD09002B6D
:101E2000F9D14022204B214E214C9A675A671A67FC
:101E3000DA66B44208D2236820000834002B1FD091
:101E4000FEF7F2FEB442F6D31A4C1B4EC022B16824
:101E5000200002F063F8B460FEF7E8FBFEF78CFEAA
:101E6000FFF77CF8154C164EB44208D2013E361BE3
:101E7000B60808CC98472B0001359E42F9D170BDB9
:101E8000FEF7C4FED5E7C04600E00040BFCDFBFE34
:101E9000FE7F3C0000F0004000C00040C40B00206A
:101EA000D40B0020FFFFFF0100F00140C40B002015
:101EB000BC0B00200000002000ED00E0D40B00204F
:101EC000E00B002000BEFDE7094A0300106800286F
:101ED00005D00849C3188B4207D8136070470648DD
:101EE0000449C31810608B42F7D901204042F5E73E
:101EF00054230020000004201C28002010B5FFF708
:101F0000E1FFC0460FB400B5084883B002F0D4F832
:101F1000049B002B07D005A91800019101F09EFB3E
:101F2000034802F0C9F80120FFF7CCFF1C9901100B
:101F3000E871051010B50148FFF7E4FF2C99011076
:101F40007047C046F8B557464546DE464E46E0B5B2
:101F500098460A9B06009A460D9B0F009346150073
:101F60009B0710D10B9B0C9A93420CD213005C463A
:101F70000B9A9D1A5D44220043460134390020200B
:101F8000B047A542F7D10B9C6319002C09D01D0066
:101F900053462A1B013C185D39004346B047002CCC
:101FA000F6D10D9B9B070ED55B46EC1A0C9BA3420A
:101FB00009D999462A004346390020200134B04708
:101FC0000135A145F6D82800F0BCBB46B246A9466B
:101FD000A046F8BDF0B54F464646D646C0B584B0DB
:101FE00098460EAB1B7894469946129B0D9C109F09
:101FF000119E9A0724D4002E6AD1BC4220D201221D
:102000001A409246202C00D1D2E00C9A551E302264
:1020100001E0202C30D001342A55A742F9D852468D
:10202000002A0DD0B4420BD20C9A551E3022202C1F
:1020300002D126E0202C63D001342A55B442F9D1D4
:10204000DA0634D55A0564D4002C5ED10F9A102AD2
:1020500000D197E0022A00D1A8E030220C9C227027
:1020600001244A46002A5ED15A0700D483E02B227D
:102070000C9D2A5501341CE05246002A02D0202E25
:102080003ED92024DA0614D55A0512D4202F00D1C7
:10209000A1E0202E3DD120261F2234000F9D102DBF
:1020A00000D18BE0022D52D030250C9FBD54202C46
:1020B000D7D103930C9B624600930296434601944A
:1020C000FFF740FF04B0E0BCBA46B146A846F0BDF9
:1020D000012215001D40AA461A4229D04A46002A6C
:1020E00039D10C321A4236D1BC429BD2202C00D0BE
:1020F0008BE710221A40202EC3D8002AA2D1D8E79D
:102100002024DA06D5D55A0503D4A74225D0B442F7
:1021100023D00F9A102A25D0022A14D0202CC8D000
:1021200022000134C0E72D220C9D2A550134C0E75E
:10213000BC4200D384E7202C00D066E710221A406E
:10214000002AE0D1B5E7202CB3D02200013462256B
:102150000C9FBD54E2E7013EC6E7621E012C00D190
:1021600074E79BE79A0616D4202CA2D078220C9D07
:102170002A550134D2E71A079BD520220C9D2A55F7
:10218000013496E79A060FD478220C9C22703022F4
:102190006270022465E7202C00D18AE758250C9A4A
:1021A000121915700134B9E75822EEE76222ECE704
:1021B000102255461A40002D9FD1C1E7023C9D06D2
:1021C00004D478250C9F3D551400A9E758250C9F91
:1021D0003D551400A4E71F2260E7C04610B5002853
:1021E00000D110BD01F01CFFFBE7C0460B0010B58D
:1021F000002802D049681B68984710BDF0B55746C3
:102200004E464546DE46E0B599B082468946904640
:102210000893229A239B1000190001F050FD00281A
:1022200000D0CDE0229823990122D94B524201F0EF
:1022300041FD002800D0C3E0229823990122D54B0C
:10224000524201F029FD002800D0B9E022982399DC
:102250000022002301F020FD002800D0F1E1229EA1
:10226000239F8023269ADB001A400D92269A1A4259
:1022700001D1062324938023269A1B011A403B0098
:1022800093460996334300D0B3E0002A00D0C2E160
:10229000002300240A930B94002304250993259B13
:1022A0000024AB4200D95C1B0223269A1A400C92F0
:1022B000269A134203D06B426B415B421C40099B40
:1022C000002B07D00A9A0B9B3000390001F08BFCE1
:1022D00006000F00229823990022002301F0DCFC65
:1022E000002803D0802109067B181F00269AAA4BDC
:1022F000009601971340089E0493249B0394029335
:10230000424633004946504600F0AAF90400002D29
:1023100067D02020269A4946024013005A42534172
:102320005B42621C18400A92330022004530D047BD
:10233000099A6F1ED317D4185C40D30F9B46002513
:1023400001E0202D13D008AA94461F2320006344E7
:102350000A2101355E1901F001FA30313170200097
:102360000A2101F0FBF926000400092EE9D8052313
:102370000693002304930A3303935B46089E02935B
:1023800010AB0A9A009349463300504605970195D1
:10239000FFF720FE0C9A0400002A22D04246851A3C
:1023A000259AAA421DD9B046574616002200434638
:1023B000494620200135B8470134AE42F6D810E036
:1023C000269B42460493259B49460393249B5046F3
:1023D0000293229B239C00930194089B00F040F9F8
:1023E0000400200019B0F0BCBB46B246A946A04686
:1023F000F0BD6A4B78009C46400D604401F072FCD1
:10240000674A684B01F009FC674A684B01F0E6FB3C
:10241000674A3B031B0B1A4304000D000998110087
:10242000644B002201F0D5FB634A644B01F0F5FBDD
:1024300002000B002000290001F0D0FB01F06AFC33
:10244000099001F04FFC5E4A5E4B04000D0001F064
:10245000E4FB00225C4B01F0C1FB01F05BFC5B4A3A
:102460005B4B29000C90200001F0D7FB04000C9876
:102470000D0001F037FC574A574B01F0CEFB02002C
:102480000B002000290001F0A4FB04000D00020055
:102490000B000A940B9501F0C0FB04000D000A9894
:1024A0000B9902000B0001F099FB00220E900F9196
:1024B0004A4B2000290001F096FB0022484B01F016
:1024C0008DFB02000B002000290001F08CFB002294
:1024D000444B01F083FB02000B002000290001F0B7
:1024E00082FB0A9A0B9B0D0080210400C905002085
:1024F00001F06FFB02000B002000290001F06EFBD1
:1025000002000B000E980F9901F06DFB0022284B82
:1025100001F064FB344B0C9C9C4664442305002270
:1025200001F07BFB04000D0002000B0030003900BD
:102530000A940B9501F0B0FB00285DD123002A001E
:10254000C625099963318D42AD4159466D42043526
:10255000002900D1A3E6134363D030003900234A99
:10256000234B01F09FFB002807D0002230003900E8
:10257000204B01F091FB002853D1249B002B00D16C
:102580008DE60D9B5A1E9341249AD31A249386E616
:10259000FFFFEF7FFFFFEFFFFFF7FFFF01FCFFFFF4
:1025A000FB799F501344D33FB3C8608B288AC63F42
:1025B0000000F03F0000F83F61436F63A787D23F00
:1025C00071A379094F930A400000E03F1655B5BB4F
:1025D000B16B0240EF39FAFE422EE63F00002C407C
:1025E0000000244000001840FF0300002D431CEBB6
:1025F000E2361A3F80842E41099B0022013B099359
:102600002000164B290001F0EEFA0A000100030039
:102610000A910B9294E7002300240A930B94002361
:102620000993249A099B9A4214DDD31A013B2493FF
:102630008023269ADB001A43002300252692099363
:102640002DE6802212069446229B1E00239B6344A3
:102650001F0006E600232493EAE7C046000024405A
:10266000F0B54546DE464E465746E0B595B08B463A
:10267000904699461E9A1F9B0A9019001000209DB3
:1026800001F01DFB002800D0B0E11E981F99012227
:10269000C74B524201F000FB002800D037E11E98E2
:1026A0001F990122C34B524201F004FB002800D0C5
:1026B000A7E01E981F990022BF4B01F0FBFA0028EB
:1026C00000D088E01E981F990022BC4B01F0E4FA6C
:1026D000002800D07FE01E981F990022002301F0FF
:1026E000DBFA002800D0FAE000230B938023229C21
:1026F000229ADB001C401A4200D102E1092D00D8C9
:102700007EE106A98C462C00172200233021093CCB
:1027100062440133D154EF1A202B00D132E1A3429D
:10272000F7D10022A44B069207931E981F9901F03F
:10273000F1FA050001F0D6FA02000B001E981F996D
:1027400001F047FA069A079B01F067FA0890099191
:1027500001F004FB060001F0C1FA02000B0008982A
:10276000099901F036FA0022954B0890099101F081
:10277000A1FA002800D1D2E00136300001F0AEFA13
:10278000069A079B01F08EFA002801D00026013539
:10279000AA46002F00D098E0280001F0A3FA02001A
:1027A0000B001E981F9901F014FA854B00220600B9
:1027B0000F0001F071FA0CAB9A46002845D10022B7
:1027C000300039007E4B01F075FA00283DD1EB074F
:1027D0003BD5013539E0229B42460493219B594663
:1027E00003930A981E9B1F9C0295009301944B46ED
:1027F000FFF704FD15B0F0BCBB46B246A946A046A3
:10280000F0BD229B5B0767D403226E4B2299019295
:10281000039121990291009342464B4659460A98EA
:10282000FFF790FBE6E706AA9446172328006344C7
:102830000A2101341E1900F069FF3031280031707F
:102840000A2100F063FF051E76D0202CEBD1032374
:10285000229A1340012B1DD1219B002B1AD00B9BD8
:10286000002B00D0BBE0229A0C33134200D0B6E01C
:10287000219BA34200D887E006AB9C461722302359
:10288000624404E02199013413558C4259D0202C24
:10289000F8D12024229B01940393219B0293534659
:1028A000B9E706AA944617230A216344300001348D
:1028B0001D1900F053FF3031297030000A21013F0B
:1028C00000F04CFF092E46D90600202CE9D15546D0
:1028D0000CAB20249A46B8E704223B4B96E71E9A9D
:1028E0001F9B0020002101F074F901230B9380232A
:1028F000229C229ADB001E901F911C401A4200D09D
:10290000FCE60022314B0627069207930DE7229B37
:102910000393219B0293042301932D4B7BE7002219
:1029200008980999264B01F0B7F9002800D02FE745
:10293000002E4FD101362BE70323229A1340012B9F
:1029400068D0202CA6D00B9B002B1FD02D235246E5
:10295000135501349EE75546202CB9D030223B193F
:10296000002F4BD0172006A9013409180A55202C36
:10297000AED09C42F6D10CAA92462E2251465C1C47
:10298000CA5462E72024CCE6202C83D0229B5B072C
:1029900008D4229B1B0700D47CE720235246135502
:1029A000013477E72B2352461355013472E7C046B2
:1029B000FFFFEFFFFFFFEF7F65CDCD4165CDCDC1BF
:1029C0000000E03F409901103899011080842E41A9
:1029D00048990110F30700D4DAE60136D8E6219BC6
:1029E000013B2193A34200D946E7AAE7229B039328
:1029F000219B029303230193084B0CE72300BAE7C2
:102A0000074BEA009B185C681B682F00069307942D
:102A100000248AE6219B002B93D020E744990110E3
:102A2000F09A0110F0B54546DE4657464E46E0B5F1
:102A3000A1B01D002A9B90460B93D04AD04B8346F1
:102A40008A461A60002900D1A4E10023287899461B
:102A5000002800D1A6E1CB4B5E460993CA4B4C46F9
:102A6000D34647460D930AE0631C984622003B007C
:102A70005946B04744462878002800D1CDE00135BA
:102A80002528F1D108239A46043B9946023B9846F3
:102A9000013B00229C460C942878691C0300203BD3
:102AA000DBB2102B03D8099C9B00E3589F46030020
:102AB000303B0C9C0A92092B7FD9002398462A2888
:102AC00000D1C1E000239A462E2800D190E00300F7
:102AD000683BDBB2122B1ED8AC4A9B00D3589F46F2
:102AE00063460D001A43D7E743460D001A43D3E768
:102AF0004B460D001A43CFE710230D001A43CBE7D6
:102B000053460D001A43C7E780235B000A9A687892
:102B10001A430A9201310D0067280AD82428A3D944
:102B20000300253BDBB2422B9ED80D9A9B00D35865
:102B30009F4601006939C9B20F2995D801238B40FE
:102B40009C46934B994663464A4613400C93624613
:102B50004B461A4200D05EE20A2900D124E107293F
:102B600082D10B9B02CB9846002900D19BE121200A
:102B70000A9A0243914610AB9C461F220F234046FF
:102B800062440B959C46A04615000C9B0A9002E0FF
:102B9000202B0CD0110064460C4020003730092C4B
:102BA00000D807380133E8540A090F29F0D80C93EC
:102BB0000A9B44460B9D984685E1002398460A9B54
:102BC00045469C4600E00131AB005B195B001D18D7
:102BD0000878303D0300303B092BF4D963460A9353
:102BE0000023A8469A460D0001312E2800D06EE73A
:102BF00080200A9AC00002430A9230225242944630
:102C000068780B0084446246092A00D82EE12A28FD
:102C100000D13DE10D00013159E7DA46A146B34646
:102C2000B846C84503D801235B424344994643460E
:102C30004A4651460020D847200021B0F0BCBB4690
:102C4000B246A946A046F0BD0B9B04CB9046002A95
:102C500004DB68780B930D00013133E70A9A2838BA
:102C600002430A9242465242687890460D000B9306
:102C7000013127E7672800D1C7E1472800D114E2D6
:102C8000452800D116E20A9A0721049242460B9B7E
:102C90000392073352468B43190002920CC930004D
:102CA000009201930B9122003B005946FFF7A6FAD0
:102CB0000400E0E680239B0028E76878682800D1BC
:102CC0001BE280230A9A01311A430A9223E76878AB
:102CD0006C2800D109E280230A9A5B001A430A9209
:102CE000013118E7462800D18AE10A9A07210492A7
:102CF00042460B9B0392073352468B4319000292C4
:102D00000CC93000009201930B9122003B00594600
:102D1000FFF7A6FC0400AEE6631C984622003B00C9
:102D200059462520B0474446A5E60B9B04330C9337
:102D3000631C99460A9B9A0700D4E7E10B9B22008B
:102D4000187859463B00B04743464444012B00D80D
:102D5000B8E22B00B84625005F464C469946220053
:102D60004346013439002020B047AC42F7D12C0053
:102D7000BB464D4647460C9B0B937CE6252A00102C
:102D80006C23002050990110E099011094990110D2
:102D900041900000DC4B28789B4600239946002890
:102DA00000D058E600243CE70B9B02CB12930B7833
:102DB0009C4618005346002B00D09CE0002812D0FF
:102DC00002235B420133994689444A460B008946F7
:102DD000110001E08B4203D05A780133002AF9D167
:102DE00049465B1A0C938023DB0099460A9A1340EC
:102DF0000B934B461A4204D00C9B534501D95346C2
:102E00000C93022399460A9A13400A934B461342A5
:102E100000D1B5E16346002B00D197E10B9B002B5D
:102E200000D14CE1D1460B1B9A462B00A1444D46E4
:102E30002200B9465F469B4609E04B463900541CC8
:102E4000B0475346185D002800D158E12200954252
:102E5000F3D15B46BB464F46A9461D004C460A9B34
:102E6000002B00D072E1129B0B9304E655460A9AA0
:102E7000A9004919490001330D181878303D0100A7
:102E800030390929F4D9AA460A921D00591C1EE6B8
:102E90000B9BA87804CB0235D143C9170A40924650
:102EA0000B93691C13E60A9B10211A008A43100039
:102EB00011310843814680201A00C00002401100F1
:102EC000034200D157E64B4608220693534605922B
:102ED00008320392002204930C9B0292019318ABD8
:102EE0002200009359463B003000FFF773F8434639
:102EF00004000B93BFE5002800D174E75346013B63
:102F000060E7622800D1DFE1582800D1ECE10A999E
:102F100080230A00DB001A4010000A00194200D189
:102F2000BDE111239A430C920C9A802311009B005F
:102F300019408C461A4200D046E1802311005B0004
:102F4000194089460B9904310A911A4200D08FE248
:102F500013005B0600D59EE113001B0600D426E398
:102F60000B9B00229B5ED9175A184A4092B2D90F88
:102F70000B91002B00D177E2100010AA9446424634
:102F80001F23129252466344AA4614944D460400ED
:102F9000B946B0461F00139201E0202D0FD020004B
:102FA0000A2100F0DBFB01357E1930313170200041
:102FB0000A2100F0D3FB26000400092EEDD8129B55
:102FC00046469846139B4F46A94655469A46149C3A
:102FD0000C9B069343460593534604930A2303939D
:102FE0000B9B02934B46019318AB2200009359466A
:102FF0003B003000FEF7EEFF0A9B04000B933AE51E
:1030000020230A9A1A430A926FE680230A9A1B0128
:103010001A430A9237E6782800D0AFE10A98802355
:103020000200DB001A4011000200184200D1D0E279
:103030000D239A43100003330A93802302009B0060
:103040001A409446184200D0ACE1802302005B0095
:103050001A4091460B9A04320C92184200D04AE270
:10306000430600D493E20B9B1B780893002B00D0FF
:103070004BE110339843002900D146E100239946E3
:1030800043460593534604930A9B069003930023FB
:1030900002934B46019318AB2200009359463B0024
:1030A0003000FEF797FF040065E680230A9A1B01B3
:1030B0001A430A9220230A9A1A430A92E3E50B1B49
:1030C0009A460C9B99462B005D469B4622003B008E
:1030D0002900B04753460134185D0028F6D14B460D
:1030E0000C935B46AB461D00B9E6C0239B000A9AD1
:1030F000A8781A430A92E91C0DE5C023F7E75D465C
:10310000BB464F46ABE6C046411F00104346012B6D
:1031100000D8D1E0631E4344B9461D005F46A24675
:103120008B4622004B46013439002020B047AC4288
:10313000F7D15D46BB464F46A14654460B9B4A46D7
:10314000187859463B004444B04714E60C9BA1460E
:10315000984500D887E64444E41A2B00B846250079
:103160005F464C46994622004346013439002020F0
:10317000B047AC42F7D12C00BB464D46474672E6FD
:103180000C98804500D81CE243461A19131A994638
:103190002B004D46B9465F469B460C9122004B469C
:1031A000013439002020B047AC42F7D143460C9996
:1031B00001330C930B785D469C46BB464F466046F8
:1031C000002800D02AE64EE607220B9B07339343E4
:1031D000013294469C4462460B920CCBD90F0A9163
:1031E000110019435FD0D9171191109151400E91E0
:1031F000119959400F910E980F99109A119B801AAE
:1032000099410E900F9110AA002394464246994688
:10321000129252461F336344B046AA464E46149457
:10322000B9460E9C0F9D1F00139201E0202E10D076
:10323000200029000A22002300F0CEFA01363032A5
:103240002B00BA550D0022000400002BEED1092AF4
:10325000ECD8129B4F46B14646469846139B0E94B7
:103260000F9555469A46149C0C9B0693434605932E
:10327000534604930A2303930A9B02934B460193FC
:1032800018AB2200009359463B003000FEF7A2FE27
:103290000400FFF7F0FB0B9B1B781A0067E6102376
:1032A0009A430C9240E6002399460028DCD1002284
:1032B00000230E920F93A6E70B9B22001878594625
:1032C0003B00B0474C4656E50A9880230200DB00DD
:1032D0001A401100184200D15FE102000D239A4309
:1032E0000B3B10000A93A8E60A9880230200DB003B
:1032F0001A4011000200184200D166E10D2320207F
:103300009A43033310430A9397E66123820600D55C
:103310004123DBB20A3B0B93434610A91F228C4684
:10332000129353466244AA46149415974C4680461D
:10333000B14617000A9E089D139308E03033DBB2B4
:1033400001343B55B5420ED3202C0CD00500310082
:10335000280000F003FACBB20929EFD90B9A944662
:103360006344DBB2ECE7129B40469846139B4E4603
:103370005546A1469A46149C159F81E66F2800D0B9
:1033800037E10A990C230A009A43802310000A00AF
:10339000DB001A4011000A9A1A4200D021E10823EA
:1033A0000A934AE60B9AFA3BFF3B07329A430133F2
:1033B0009C46944463460B931368526808931343E6
:1033C00012921A1E05D1002310329946904300290B
:1033D00041D16122810600D54122D2B20A3A0C9233
:1033E0004246002310A9139252468C4699461492E5
:1033F0001F330A9A6344AA46159417964C46904682
:10340000B946089E1F00129D16900AE03032D2B2D3
:10341000002301343A55AB4211D0202C11D00600C4
:103420000D00424600233000290000F0D5F9D2B249
:10343000092AEBD90C9B9C466244D2B2E8E7B0451E
:10344000EBD9139B55469846149B4F469A46A14686
:103450001698179E159C43460593534604930A9B62
:1034600006900393002308E7002800D0B0E584E528
:103470000B9B1B68DA0F1100002B00D194E0DA17C8
:103480009818504010AA914642461F231292524665
:103490004B44A046AA4614970400B14665461F0057
:1034A0000B91139201E0202D0FD020000A2100F093
:1034B00055F901357E193031317020000A2100F0B4
:1034C0004DF926000400092EEDD8129B444698467B
:1034D0000B9BAC461900139B55464E469A46149FCB
:1034E0000C9B0291069343460593534604930A238B
:1034F0000393634677E50B9B1B680893002B03D16E
:1035000010339843002937D16123820600D5412327
:10351000DBB20A3B0B93434610A989461F22129344
:1035200053464A44AA46B1461494159764468046C9
:103530001700089D0A9E139308E03033DBB2013474
:103540003B55B5420ED3202C0CD00500310028008D
:1035500000F004F9CBB20929EFD90B9A94466344E1
:10356000DBB2ECE7129B40469846139B55464E460D
:103570009A46A446159F149C4346059353460493CC
:103580000A9B0690039300230293634682E5030699
:1035900013D50B9B1B88089368E502000C239A4304
:1035A0000A3B10000A9348E5002899D16AE70B9B73
:1035B0001B68D9175A184A40D9E40B9B1B6808931B
:1035C00054E5030001330C93F9E520230A9A1A43CA
:1035D0000A920C230A9A00219A43043310000A939A
:1035E0002BE50A9B0C9308230A930D230C98984310
:1035F00023E510230A9A9A430C9269280AD10A9962
:1036000080230A00DB001A4010000A00194200D192
:103610008AE486E40A991C230A009A438023100056
:103620000A00DB001A4011000A9A1A4202D10A234A
:103630000A9302E50A230A93D7E7C04600B585B08E
:103640000391012102900093034813004A4202A90A
:10365000FFF7E8F905B000BDED21001010B5094AEB
:103660000300146884B0002C08D0012200910648A1
:10367000524203A9A047012004B010BD00F01CFD78
:103680000020F9E76C230020DD210010014804210F
:10369000014B184710060020C9360010014B9B68EB
:1036A0001847000010060020142310B501001888E8
:1036B00004331B88984710BD162310B501001888E5
:1036C00002331B88984710BDF8B54746CE4680B5F3
:1036D0000F1E19D014239946043304000025012637
:1036E00098464B461888434621681B88984701C472
:1036F000431E9841013540420640AF42F1D13000AF
:10370000C0BCB946B046F8BD0126F8E7124A936F2F
:103710009B0815D29066D166002905D0FFE7FFE728
:10372000FFE7516F106F704704B580210906C2177B
:103730005140002800D0C84316F086F8002104BD8F
:10374000F0B5146E556E576F166FFFF7E3FF1466F2
:10375000556657671667F0BD000000D0114A936F99
:103760009B0813D210665166002905D0FFE7FFE7DA
:10377000FFE7516F106F704704B5002801D000209B
:10378000C04316F061F8002104BDC046F0B5146EC8
:10379000556E576F166FFFF7E5FF1466556657674E
:1037A0001667F0BD000000D094464A4A926F920816
:1037B000624601D228E0C046F0B5464E346E756EC2
:1037C000776F366F00F020F89446424A14665566CB
:1037D000576716676246F0BD94463E4A926F92085C
:1037E000624601D254E0C046F0B53A4E346E756E72
:1037F000776F366F00F04CF89446364A146655667B
:10380000576716676246F0BD002B24DB11D00029F4
:103810003EDA00B5C943404200D1013100F038F82A
:10382000C943404200D10131DB43524200D1013350
:1038300000BD002AEBD1002801D1002905D00020CD
:10384000C90FC90701D1C043410800B515F0E4FF15
:103850000022002300BD00B500290ADBDB435242F1
:1038600000D1013300F014F8C943404200D10131C6
:1038700000BDC943404200D10131DB43524200D177
:10388000013300F005F8DB43524200D1013300BDA3
:10389000002923D1002B18D1002A0CD0BC460D4F93
:1038A00038667A6600210023FFE7FFE7FFE77A6FBB
:1038B000386F67467047002801D00748010000B5FF
:1038C00015F0AAFF0022002300BD02000B0000201B
:1038D00000217047000000D0FFFFFFFF002B00D049
:1038E000BFE0130C28D1002AE7D080B4114F39660D
:1038F0007A66FFE7FFE730B4040C7B6F396F1B0477
:1039000023433B667A66FFE7FFE7FFE7C04684B2E2
:103910007B6F3D6F1B0423433B667A66FFE7FFE73F
:10392000C04600232C042D0C7A6F386F00196941B2
:10393000B0BC7047000000D0F0B594460025140ECE
:1039400001D112020835140F01D112010435940F70
:1039500001D192000235D40F01D152000135D40BB0
:103960000134254F7C66254C3C660E0C93B2FFE774
:10397000FFE7FFE73C6F6643360C7703BE467343B1
:10398000DF0B5B04C01AB941130C7343DB18C91A6F
:10399000CE086643360CB64493B273431F0F1B0127
:1039A000C01AB941130C73431F0B1B05C01AB94150
:1039B000860D8F023E436643360C092D24DB520AE6
:1039C0007243801A7703460A6643360C16235B1B44
:1039D000DE40DF40BF1964466643821B70460435F3
:1039E00006330100D940A840C01900D30131A242DA
:1039F00006D20023F0BD0000000000D0FFFFFFFF53
:103A0000121B0130F3D3F1E709277F1BFE40644608
:103A1000A2B27243801A00D20139220C7243130CF5
:103A20001204821A99410B007046043513370100C5
:103A3000F940A840801900D30131002B02D1A242E5
:103A40000AD2F0BD013000D30131121BFAD2013B82
:103A5000F8D1A24200D2F0BD013000D30131121BD7
:103A6000F7E7F0B51C0C00D080E00CB400251C0A70
:103A700004D11B02160E3343120208351C0B04D16D
:103A80001B01160F3343120104359C0B04D19B001C
:103A9000960F334392000235DC0B02D192185B4142
:103AA00001351C00971864410134464F7C66464C32
:103AB0003C660E0CFFE7FFE7FFE7C0463C6F66433E
:103AC000360C7703BE4697B27743C01B00D201394C
:103AD000C01B00D201399FB27743C91BC91B170C09
:103AE00077437E04FF0B801BB941CE086643360C3A
:103AF0000C2D33DBB644120B1F053A431B0B97B258
:103B00007743C01B00D201399FB27743C91B170C02
:103B100077433E043F0C801BB941860D8F023E4324
:103B2000664329277F1BFE400C3D7746AF40BF19F7
:103B300030BCA2B2ABB272437343801A9941220CDB
:103B40007243130C1204801A994102000B000137D2
:103B5000001BA941F9D2781E0021F0BD0C277F1B64
:103B6000FE4077467F0BAF40FF19E0E700245D1C65
:103B700007D0144F7D663966FFE7FFE7FFE7FFE7F1
:103B80003C6F95B29EB265436643401BB141150C34
:103B90001E0C6543664336042F0C3E432D04401B28
:103BA000B141994204D202000B0020000021F0BD77
:103BB00001D19042F7D3801A994101349942F2D34E
:103BC000F6E70000000000D0FFFFFFFF4840414043
:103BD000484018B4134B5B68019308BD18B4114BEF
:103BE0001B68019308BD94460F4A926F920805D254
:103BF000624618B40B4BDB68019308BD0A4AF0B566
:103C0000146E556E576F166F6246FFF7F2FF064A45
:103C10001466556657671667F0BD18B4014B9B686C
:103C2000019308BD680D0020000000D0FFB5504092
:103C30004240504059404B40594000E0FFB5154FBD
:103C40004C00640D03D0BC4204D10C0314D80020F6
:103C5000090D09055C00640D03D0BC4204D11C03AE
:103C60000AD800221B0D1B0501264B4009D44B40EE
:103C700003D58B4200D18242FFBD9942FCD19042D4
:103C8000FFBD0B43DB1803431343F5D0C943491869
:103C9000FFBD0000FF07000000B5FFF7CFFF804128
:103CA00000BDC04600B5FFF7C1FF01D9002000BD2F
:103CB000012000BD00B5FFF7B9FF804100BD012024
:103CC00040054A00121804D85A00121801D80020E2
:103CD0007047012070470020704700000021002835
:103CE00005D17047C1174840401AFAD0C90713B52B
:103CF000064B1B6898470CBC441CA2401005120BD5
:103D00000349091B09051943114310BDBC230020B9
:103D10001F04000010B54C00620D8023D218DB0098
:103D2000D21A5B057E2A10DD9E3A13DACC170903FE
:103D3000490819435242D140640001341532202A07
:103D400005DAD0400843604310BD002010BD08468E
:103D5000604310BDC80FC018013810BD18B4024B25
:103D60005B6A019308BD0000680D002010B5014892
:103D7000FEF7C8F8409B0110132370B51D78012D84
:103D800015D010DD1B48FFF797FC1B4C010080226B
:103D9000200000F0C3F8022D06D01848FFF784FC7D
:103DA000174B186070BD144C164BA364F5E7164B07
:103DB000114C23606360A360E36023616361A361CE
:103DC000E36123626362A362E36223636363A363C9
:103DD000E36323646364A364E36423656365A365A9
:103DE000E36523666366A366E36623676367A36789
:103DF000E367D9E753440000680D00204C3300000E
:103E0000BC2300200D3E00106D3D001007B560463C
:103E100001880A0A0230DF2AFAD1C9B2820804D323
:103E2000028840880004104300E00068014A5050B6
:103E3000039007BD680D002051434343C9188C46C9
:103E4000110C83B24B4310B4040C614392B280B2A4
:103E5000504362431C041B0C001910BC594113044D
:103E6000120CC018514161447047000010B5014860
:103E7000FEF748F8108C0510132310B510481C7875
:103E8000FFF71AFC0100012C0AD003DD80220D4847
:103E900000F044F80C48FFF707FC0C4B186010BD0D
:103EA000084C5422200000F039F8220008498032E2
:103EB0002368002B00D1216004349442F8D1E9E753
:103EC00053460000C02300204C330000BC230020D8
:103ED0006D3E001010B5040014F0D0FE002804D090
:103EE000034B04199C4200D810BD0248FEF70AF8A3
:103EF00000000420589B011010B514F0C9FE10BD3D
:103F000001480421014B184720060020C936001043
:103F1000014B1B681847000020060020014B5B681E
:103F20001847000020060020F0B5C64600B5437DC6
:103F300007000D001600002B38D0002A2EDD0021CE
:103F40006A1E90466A5C037D4C1C00200A2A0CD035
:103F5000A64216D043461B5D21000D3B5A425341F9
:103F60006A5CDBB24C1C0A2AF2D1002BF0D18142F0
:103F700017DC022110483B689847A64207D0200072
:103F8000E8E7864203DD311A3B6828189847AD19E7
:103F9000013D2B780D3B5A4253413B7580BCB846DE
:103FA000F0BD091A3B6828189847E2E7036811003A
:103FB00028009847F2E7C046CC9B0110F0B5C646F2
:103FC0000B6806000C0000B5802B06D05A1C22603E
:103FD000E418267180BCB846F0BD0F4B1D68002D5B
:103FE00016D00B1D98460D4F02E02D69002D0FD005
:103FF0002B68002BF9D03B68002B01D0AB42F4D1E9
:10400000280041462268FFF78FFF2D69002DEFD170
:1040100001220023DBE7C046001D0020181D002000
:10402000F0B5CE46474680B583B06B460600DD1D31
:104030002870FDF7D7F900231A4A12184B41802146
:1040400009068B4202D30122174B5242174908003E
:10405000884615F011FC164B81461C68002C14D0C4
:10406000144F02E02469002C0FD02368002BF9D0F4
:104070003B68002B01D0A342F4D12000012229008B
:10408000FFF752FF2469002CEFD14B46002B05D1DE
:10409000300003B0C0BCB946B046F0BD404615F094
:1040A000B3FBF5E740420F00FFFFFF7FBC0B002092
:1040B000001D0020181D0020F0B5DE4657464E4674
:1040C0004546E0B585B0070015F0BAF90600FDF7E2
:1040D00089F900232B4A12184B41802109068B4293
:1040E00002D30122284B5242284908008B4615F082
:1040F000C3FB274B01901C689A46002C3BD0254BF4
:10410000984602ABDD1D0A23994602E02469002C83
:1041100017D02368002BF9D043461B68002B01D031
:10412000A342F3D1200032003900FFF7FDFE4B46D9
:104130002000012229002B70FFF7F6FE2469002CD5
:10414000E7D1019B002B18D153461C68002C06D0E8
:104150006368002B0BD098472469002CF8D13000FD
:1041600005B0F0BCBB46B246A946A046F0BD2469E6
:10417000002CEDD1F3E70028F1D0584615F044FBB0
:10418000E2E7C04640420F00FFFFFF7FBC0B00206C
:10419000001D0020181D00200A4A1368002B05D1BD
:1041A0000CE01A001B691032002B07D09842F8D19E
:1041B000002902D103691360016170470029FCD016
:1041C0001060FAE7001D0020F0B5CE46474680B5E6
:1041D000A3B004000D00FDF705F90023294A1218C9
:1041E0004B41802109068B4202D30122264B5242C9
:1041F000264F380015F040FB0023060001932200F3
:104200002B00234801A9FFF719FA019B8046002BD8
:1042100014D1204B1C68002C06D06368002B0BD0F7
:1042200098472469002CF8D1002E25D1404623B0B0
:10423000C0BCB946B046F0BD2469ECE7154B1D681B
:104240009946002D1CD0144C02E02D69002D0FD092
:104250002B68002BF9D02368002B01D0AB42F4D19E
:104260002800019A02A9FFF75FFE2D69002DEFD10A
:104270004B4601951C68CEE7380015F0C5FAD5E726
:104280000195D1E740420F00FFFFFF7FBC0B0020EC
:10429000BD3F0010001D0020181D00200FB400B508
:1042A00083B004A901C90191FFF78EFF03B008BCD8
:1042B00004B0184710B500F0CBF8012010BDC0467F
:1042C000F0B5002915DD0E4B0D271A680D4B0E4C6D
:1042D000D3185D426B41451820215B001E5F0478B6
:1042E000A64207D093691942FCD101301460A8425C
:1042F000F5D1F0BD93691942FCD11760F2E7C046D1
:10430000302700200080FCBF2C270020214B70B5F7
:1043100004000D1E1E682CDD002010211E4B013CE8
:104320001A689369194215D1013093691942FCD179
:10433000136823548542F4D1002E09D0502338212C
:104340009363536B3432194080235B01134319602C
:1043500028000DE0002E09D0502338219363536BC1
:104360003432194080235B011A43116000280ED0BB
:1043700070BD002E0BD050223821074B1B689A636A
:104380005A6B3433114080225201134319600320C9
:104390004042EDE7C813002030270020064B10B53F
:1043A0001B68002B06D00021044A12689163044A5E
:1043B0001068984710BDC046C81300203027002061
:1043C000CC1300201D4BF0B51A68C64698461C4B0E
:1043D0000E00D31859424B411A4F14331C000500EC
:1043E00000B53B68002807D0002B11D0164B3D606C
:1043F0001E6080BCB846F0BD002BF7D09063002152
:104400002000FCF72DF920001049FCF765FAEDE7D4
:1044100020000E49FCF746F901212000FCF720F9A5
:104420004346502238211B689A635A6B343311403B
:104430008022520113431960D8E7C046302700207C
:104440000080FCBFC8130020CC1300209D43001047
:1044500010B50C4B0C4C1B780C4B02211B780C4BF1
:1044600000202360FBF780FF02210120FBF77CFF87
:10447000E12120684902FDF76FFA01210548FFF7A5
:104480008BFE10BDB48C051030270020B08C0510B9
:104490000040034030060020064B10B51B68002B7F
:1044A00000D010BD0220044A0449A4330EF076FF68
:1044B000F7E7C04674230020109C0110249C0110D3
:1044C0007047C0461020704770B50B4D04002B5C40
:1044D000002B0FD0FF23094903401943084B1868EC
:1044E000084B1B689B6898470023074A2B551368A5
:1044F000013B136070BDC046041D002000445442BF
:10450000702300207423002080230020F0B54E4645
:104510004546DE4657460023E0B5012699465B4BEB
:1045200076429B465A4B0024B0469A469BB0594D62
:10453000079006910992059608962B5D002B00D1F5
:1045400087E05B461868534653491B6821431F6840
:104550000BAA3C23B847062206980DA914F084FE46
:10456000002804D10C9B079A934200D108940B9B1E
:10457000994500D29946424601326CD0B3426AD383
:1045800033001E000134102CD7D14346089E434C03
:104590000293059B220001930120E82340490096E5
:1045A0000EF0FCFE731C58D0002722003D49F72373
:1045B000012000960EF0F2FE069B18009A460BF0C2
:1045C000B5F9079B22003849019000930120FB2395
:1045D0000EF0E4FE099B3548190098460BF0C2F82E
:1045E00006AB9C4632201E2260440021FFF790FC5F
:1045F000079B062251460DA80C93FFF78FFC06ABD4
:104600009C462220414610226044FFF787FC4B461F
:1046100001330B93FF232049334019431B4B0BAA53
:1046200018681B4B1B685B6898463C23C0470028F2
:1046300021D10123AB55002F03D01D4A136801334C
:10464000136008981BB0F0BCBB46B246A946A04612
:10465000F0BD059496E7A04693E7059A531C03D056
:10466000160001270892A0E7434601330AD04346CB
:104670001E00089398E70C23220002200D49FF3307
:104680000EF08CFE01235B420893DAE770230020D2
:1046900074230020041D002000445442109C01108B
:1046A000489C0110909C0110B09C0110D89C0110F6
:1046B00080230020DC9C0110F0B51C00FF230E00BD
:1046C000154903401943154B91B01868144B150058
:1046D0001B6801AA1F683C23B8473C2806D03C222F
:1046E000002101A8FFF714FCFE230293002E01D045
:1046F000029B3360002D04D00622280003A9FFF797
:104700000DFC002C05D01221102220006944FFF777
:1047100005FC11B0F0BDC046004454427023002097
:1047200074230020F0B557464E464546DE469A466D
:10473000FF23E0B5314C324E03401C433368314F08
:104740001B6897B0050089469346984621003C2394
:10475000386807AAC0473C2806D017B0F0BCBB4653
:10476000B246A946A046F0BD274B28499846239B50
:1047700042460593229B00950493219B3B3803936B
:10478000209B02934B4601933623FF330EF006FE27
:104790004A226B469B184A461A805B46002B04D07F
:1047A0000822594613A8FFF7B9FB5346002B05D042
:1047B0003A20102251466844FFF7B0FB219B229A11
:1047C000D9B2209B0902DBB20B43D2B22399120467
:1047D000090613430B431593336821005D6838685D
:1047E0003C2307AAA8470028B7D0A12342460220AD
:1047F00007495B000EF0D2FDAFE7C04600445442CB
:104800007423002070230020109C0110F49C0110E0
:10481000709D0110F0B54746CE46FF2680B51F00BB
:104820002F4B0640050018682E4B97B01B68894631
:104830002D4907AC9046314322001E683C23B04707
:104840003C2804D017B0C0BCB946B046F0BD3B23ED
:10485000E35C264A05933A23E35C25490493392314
:10486000E35C3B3803933823E35C0293E38D0095CC
:104870000193A7235B000EF091FD4B46002B02D065
:104880004A46E38D13804346002B04D0082240465D
:1048900013A9FFF743FB002F05D03A21102238005F
:1048A0006944FFF73BFB1E9B002B03D01A00382303
:1048B000E35C13601F9B002B03D01A003923E35CD9
:1048C0001360209B002B03D01A003A23E35C136093
:1048D000219B002BB6D01A003B23E35C1360B1E7A9
:1048E000702300207423002000445442109C0110C7
:1048F000949D0110F0B5DE4657464E464546204B86
:10490000E0B5994618601F4B1F4F19609846002369
:104910003B601E4B06000D0018001022002193B0D2
:104920009B46FFF7F5FA1A4B00249A460CE05B46CB
:1049300001221A553B68013401333B60102C0FD023
:104940004B461E6843461D6851463C232800366886
:1049500003AA2143B0473C28E9D00134102CEFD101
:104960003B68012000930B4A9F230B490EF016FD74
:1049700013B0F0BCBB46B246A946A046F0BDC04647
:10498000742300207023002080230020041D0020B9
:1049900000445442109C01100C9E011070B580B26E
:1049A00082B00BF033FB041E20D0114E114D3100AC
:1049B00028000AF007FEB3210F22AC3E735C93433C
:1049C00022006932FF32D07E013B1B181020527E3C
:1049D000834312019B18B4225200A25A7354064812
:1049E000009229000222054B0AF0D0FA02B070BDF5
:1049F0009C260020BC250020242500200152001008
:104A0000F0B5C646002400B5434B86B080B2984648
:104A10001C700BF0FBFA071E7AD002943F4C062262
:104A2000210003A88931FFF779FA2100122002AE94
:104A300006228F316844FFF771FA310038480AF0D6
:104A400091FE384D32782B7853402922A354727846
:104A50006B7853402A22A354B278AB7853402B2270
:104A6000A354F278EB7853402C22A35432792B795B
:104A700053402D22A35472796B7953402E22A354B4
:104A8000B279AB7953402F22A354F279EB7953409A
:104A90003022A354327A2B7A53403122A354727AB3
:104AA0006B7A53403222A354AB7AB27A1E485340F9
:104AB0003322A354F27AEB7A53403422A354327B4C
:104AC0002B7B53403522A354727B6B7B53403622A1
:104AD000A354B27BAB7B53403722A354F27BEB7BD6
:104AE00026005340382229363100A3540AF03AFEFA
:104AF00001234246210013706833FF33FB5A320012
:104B000001930A4B0A48009317312B000AF054FA1C
:104B100006B080BCB846F0BD0E280020F02500206D
:104B2000349E0110D8240020389E011039570010FF
:104B300008250020F0B5C646002300B51A4F82B004
:104B400080B23B700BF062FA061E28D0174C184852
:104B500021000AF007FE2200A823953AD35A154DEA
:104B60009846102200212800FFF7D2F901220C21DB
:104B700028000AF0F5FC42460E2128000AF0F0FC5D
:104B80000123B4223B7023005200B25A0A49019219
:104B90000A4A0B4800922F332A000AF00DFA02B09D
:104BA00080BCB846F0BDC0460E28002085260020F7
:104BB0003C9E0110F824002084250020D55F0010C1
:104BC00008250020F0B50024424F87B080B23C7029
:104BD0000BF01CFA061E7AD002943F4C06222100EC
:104BE00003A88931FFF79AF92100122002AD0622AD
:104BF0008F316844FFF792F9290038480AF0B2FD76
:104C0000374B29781A784A402921625469785A78B2
:104C10004A402A216254A9789A784A402B2162544A
:104C2000E978DA784A402C21625429791A794A4085
:104C30002D21625469795A794A402E216254A9790A
:104C40009A794A402F216254E979DA794A40302131
:104C50006254297A1A7A4A4031216254697A5A7A1E
:104C60004A40322162549A7AA97A1E484A40332136
:104C70006254E97ADA7A4A4034216254297B1A7BF9
:104C80004A4035216254697B5A7B4A40362162543E
:104C9000A97B9A7BDB7B4A4037216254EA7B250063
:104CA0005340382229352900A3540AF05BFD012323
:104CB000B4223B70210023005200B25A0A480192EC
:104CC0000A4A5733009217312A000AF075F907B0E3
:104CD000F0BDC0460E280020F0250020349E0110B3
:104CE000D8240020389E011008250020ED4F001028
:104CF000F0B5D64646464F460023C0B52B4E82B08F
:104D000080B233700BF082F9051E48D00E2128487E
:104D10000AF010FCA627274C274BE0530093B02342
:104D20000004264A2649000C0190FF3301209146D9
:104D30008A460EF033FBA82398464246E35BA25A0C
:104D400051465340AA22A35201931E4B4A46009358
:104D5000B0230120FF330EF021FB4346E35A1A4FE4
:104D60009846102200213800FFF7D2F800220C21CB
:104D700038000AF0F5FB42460E2138000AF0F0FB3D
:104D80000123B422337023005200AA5A0F49019222
:104D90000F4A1048009295333A000AF00DF902B01C
:104DA000E0BCBA46B146A846F0BDC0460E28002079
:104DB000D8240020F0250020649B0110409E0110A3
:104DC000489E01105C9E0110F824002084250020DC
:104DD000354B001008250020F0B5CE46474600238D
:104DE00080B5294E83B080B233700BF00FF9051EE9
:104DF00045D00E2125480AF09DFBA627244C254BC3
:104E0000E0530093B0230004234A2449000C01908E
:104E1000FF330120904689460EF0C0FAAA23E25AD9
:104E2000E35B02375340E3531D4B49460093B023E5
:104E300001200192FF3342460EF0B0FAE35B194FB6
:104E40009846102200213800FFF762F800220C215A
:104E500038000AF085FB42460E2138000AF080FB3C
:104E60000123B422337023005200AA5A0E49019242
:104E70000E4A0F48009295333A000AF09DF803B0AD
:104E8000C0BCB946B046F0BD0E280020D824002092
:104E9000F0250020649B0110409E0110489E0110E7
:104EA0005C9E0110F824002084250020A5500010ED
:104EB0000825002000220D4B10B50D490D481A7031
:104EC0000AF050FC02220C4B1A700C4B1B78002B82
:104ED0000AD00B4C20000AF0B9FA200000210AF099
:104EE000A1FA20000AF0AAFA10BDC0460E28002040
:104EF000A4250020D89C01100428002010280020A0
:104F0000C425002000220D4B10B50D490D481A7024
:104F10000AF028FC03220C4B1A700C4B1B78002B58
:104F20000AD00B4C20000AF091FA200000210AF070
:104F300079FA20000AF082FA10BDC0460E2800203F
:104F400074250020649E01100428002010280020F1
:104F5000C425002010B580B20BF058F8002807D007
:104F60000B236930FF304375084B1B78002B00D1B1
:104F700010BD074C20000AF069FA200000210AF059
:104F800051FA20000AF05AFAF2E7C0461028002031
:104F9000C425002070B500250E4C0F4B03220F498D
:104FA00020001D70FEF7BAFF0D4BE01E1D700EF0C5
:104FB00035F80C4B1B78002B0AD00B4C20000AF064
:104FC00045FA200000210AF02DFA20000AF036FAF6
:104FD00070BDC046B72500200E280020E524002023
:104FE0000928002010280020C42500200022104B92
:104FF00010B580B21A700BF009F8041E0BD00D49E1
:105000000D480AF0AFFB0F236934FF3463750B4B77
:105010001B78002B00D110BD094C20000AF016FAB5
:10502000200000210AF0FEF920000AF007FAF2E75A
:105030000E28002047260020689E0110102800201E
:10504000C42500203F2310B5114802781340114AAF
:105050001278032A14D140210B4303700E4B1A70AF
:105060000E4B1B78002B0AD00D4C20000AF0EEF9F5
:10507000200000210AF0D6F920000AF0DFF910BD67
:1050800000220370044B1A700DF0C8FFE8E7C04619
:10509000B425002005280020092800201028002021
:1050A000C42500200022174B70B580B21A700AF098
:1050B000ADFF002816D06930FF30C37E04000F2BEF
:1050C0001DD81022104D00212800D21AFEF720FF13
:1050D00029000E480AF046FB282363750C4B1B7809
:1050E000002B00D170BD0B4C20000AF0AFF920005E
:1050F00000210AF097F920000AF0A0F9F2E7024D2A
:10510000E6E7C0460E280020852600203C9E0110C0
:1051100010280020C42500200022174B70B580B253
:105120001A700AF073FF002816D06930FF30C37E72
:1051300004000F2B1DD81022104D00212800D21A78
:10514000FEF7E6FE29000E480AF00CFB26236375E5
:105150000C4B1B78002B00D170BD0B4C20000AF0CB
:1051600075F9200000210AF05DF920000AF066F9C7
:10517000F2E7024DE6E7C0460E2800208526002013
:105180006C9E011010280020C425002030B5342367
:10519000012287B06946174CC254EE33E55C164BCA
:1051A00002880B80684602210AF0AEF920006B46A7
:1051B0002430591DFF301D710AF038FA0B236A465E
:1051C000012104200EF0B2F80C4903A809F06CFF8D
:1051D00008E003A809F080FF0B2344686A46002119
:1051E0000420A04703A809F065FF0028F1D107B00B
:1051F00030BDC046F0250020D40900003C25002029
:1052000010B580B282B00AF001FF041E1AD000214E
:1052100013480AF08FF9A822124B1349985203043D
:105220001B0C0193114B01200093B023104AFF3354
:105230000EF0B4F814236934FF3463750D4B1B78FA
:10524000002B01D102B010BD0B4C20000AF0FEF87B
:10525000200000210AF0E6F820000AF0EFF8F1E75C
:10526000BC250020F0250020489E0110709E0110F2
:10527000409E011010280020C4250020F0B53423E2
:105280001500002289B00E006946194CC254EE3355
:10529000E75C184B02880B8204A802210AF034F95B
:1052A000200015216B4624306944FF301F750AF039
:1052B000BDF96B460121DE761D7704200D2304AA7B
:1052C0000EF034F80C4901A809F0EEFE08E001A840
:1052D00009F002FF0D2344680021042004AAA0471E
:1052E00001A809F0E7FE0028F1D109B0F0BDC046E1
:1052F000F0250020D50B00003C250020012370B5CF
:105300001A4D86B02B746B46C67919700A2369460C
:10531000040002884B70684602210AF0F5F86B46DB
:105320002000591D08301E710AF080F92823EB5C1B
:1053300001215A1E93416A460420D3720C230DF0BA
:10534000F5FF0B4903A809F0AFFE08E003A809F038
:10535000C3FE0C2344686A4600210420A04703A82A
:1053600009F0A8FE0028F1D106B070BDF02500209C
:105370003C250020002230B51C4B1D4C83B01A7018
:1053800000280FD01B4B220018681B4B1B491B68C1
:105390005D681023A8471A4A00901A4901201A4B49
:1053A0000DF0FCFF210019480AF0DCF90123184C2C
:1053B0002370184B1B78002B10D1174B1B78002B38
:1053C0000AD0164C20000AF041F8200000210AF013
:1053D00029F820000AF032F803B030BD1049114816
:1053E0000AF0C0F902232370E7E7C0461328002023
:1053F00094250020D4250020D825002052494D5363
:10540000409E0110749E01102C0E0000A89E0110F9
:10541000042800201628002010280020C425002081
:10542000A4250020AC9E011070B580B20AF0EEFDFC
:10543000041E15D0174D102200212800FEF768FD2C
:10544000154B1A68531C18D00C2128000AF08EF84E
:1054500022236934FF346375104B1B78002B00D175
:1054600070BD0F4C200009F0F1FF2000002109F071
:10547000D9FF200009F0E2FFF2E7002109480AF015
:1054800035F8094B0203120B9A42DDD9074B9C46B3
:105490006244D9E70726002040250020102800207C
:1054A000C4250020BC2500203E420F00C1BDF0FFF6
:1054B0003523012270B50400C254006B8AB0002865
:1054C00032DA2100E57902AE06223000083101957A
:1054D000FEF724FD6946194B22880B8204A802219D
:1054E0000AF012F815216B46300069441D750AF068
:1054F0009DF80B230121042004AA0DF017FF104989
:1055000007A809F0D1FD08E007A809F0E5FD0B2385
:1055100044680021042004AAA04707A809F0CAFD96
:105520000028F1D10AB070BD02AE0023320001A9FB
:10553000FFF7C2F8019DEDB2CCE7C046D6090000E6
:105540003C25002035230022F0B50400C254006B36
:105550000D008BB0002834DA2100E67902AF062274
:10556000380008310196FEF7D9FC6946194B2288AC
:105570000B8204A8022109F0C7FF15216B463800F1
:1055800069441E750AF052F86B460121DD7604204D
:105590000C2304AA0DF0CAFE0F4907A809F084FDE8
:1055A00008E007A809F098FD0C23446800210420B6
:1055B00004AAA04707A809F07DFD0028F1D10BB08F
:1055C000F0BD02AF00233A0001A9FFF775F8019E74
:1055D000F6B2CAE7D70A00003C25002030B5194CC6
:1055E00083B0220001201849184B0DF0D7FE184B4C
:1055F000184D1968280009F015FF280009F01EFF52
:10560000154D22002B7801200093AF2313499B00F6
:105610000DF0C4FE2B78002B05D101332B70104BFD
:105620001B78002B01D103B030BD0E4C200009F0D7
:105630000DFF2000002109F0F5FE200009F0FEFE1C
:10564000F1E7C046409E0110B09E0110C502000067
:105650002C1D00201C1D002009280020D89E0110B0
:1056600010280020C42500201A23F0B543751A33F2
:10567000C25C05008BB0002A06D12B88274D2C88F0
:105680009C423DD00BB0F0BD00266946244C0288F8
:10569000C654EE33E75C234B06A80B83022109F0C6
:1056A00033FF20001D216B4624306944FF301F77F3
:1056B00009F0BCFF6B4623229B181E706B4601321B
:1056C0009B181E7001210D23042006AA0DF02EFE4A
:1056D000154903A809F0E8FC08E003A809F0FCFC60
:1056E0000D2344680021042006AAA04703A809F05E
:1056F000E1FC0028F1D12B88084D2C889C42C1D1B7
:10570000074809F0A3FE01235B422B800120074AD2
:105710000749084B00940DF041FEB3E7480600200E
:10572000F0250020D50B00003C250020409E0110F4
:10573000049F01103B0400000022184B70B580B29A
:105740001A700AF063FC041E13D0154D1548290089
:105750000AF008F810222900134813F085FD693477
:10576000FF34002806D110236375104B1B78002BE3
:1057700008D170BD0423E375033B63750B4B1B78A5
:10578000002BF6D00A4C200009F060FE200000211A
:1057900009F048FE200009F051FEEAE70E2800203B
:1057A000D8240020689E01106726002010280020C1
:1057B000C4250020F0B5C646002300B52E4D2F4C61
:1057C0002F4F82B02B7000284DD02E4E2200336810
:1057D0002D495B68386898461023C0472B4A0090D3
:1057E0002B4901202B4B0DF0D9FD21002A4809F04F
:1057F000B9FF3368294C1E682200102338682849F5
:10580000B04710280CD0012310222B702100254B0B
:105810002548009409F0BAFB02B080BCB846F0BD40
:105820001A4A2249224B0F380DF0B8FD00232100FF
:1058300020482B7009F096FF01231F4C23701F4B4B
:105840001B78002B11D11E4B1B78002BE4D01D4C74
:10585000200009F0FBFD2000002109F0E3FD2000FD
:1058600009F0ECFDD8E7074EBFE71749174809F0E4
:1058700079FF02232370E6E7132800208425002007
:10588000D4250020D825002052454D53409E0110BC
:10589000389F01103F0E00006C9F011094250020DE
:1058A00052494D537553001024250020709F01105C
:1058B000480E0000A89E0110042800201628002091
:1058C00010280020C4250020A4250020AC9E011033
:1058D000F0B547460024CE46884980B50E680C6076
:1058E0000121874D874B2A7849421F6895B02C705B
:1058F0001960022A34D00025012856D16A46824B0D
:105900000BA81C78814B022193852A0009F0FCFD2D
:1059100030226B4631219B181C7069447C4809F089
:1059200085FE0FAC0B23012104200BAA0DF0FEFC19
:105930002000784909F0B8FB08E0200009F0CCFB12
:105940000B234568002104200BAAA847200009F07A
:10595000B1FB0028F1D115B0C0BCB946B046F0BDCE
:10596000358801285DD00323B3756B4B0120984621
:105970006A4942466A4B376300970DF00FFD306B62
:105980000BAB002200210394029401940094FEF7D3
:1059900041FF10210BA809F057FE3379002B04D0EA
:1059A000737D1D2B59D1013B7375574B38041E78FD
:1059B00006AA05A90023000CFEF77EFE594B0FAC8A
:1059C0002A0023802000022109F09EFD4121504839
:1059D0006944267109F02AFE059B12A9E37206A804
:1059E00009F024FE2000BAB2122109F08DFD142323
:1059F0002200012104200DF099FC464908A809F075
:105A000053FB08E008A809F067FB1423456822004F
:105A100000210420A84708A809F04CFB0028F1D178
:105A200099E70423B3753379002B00D166E7737DC2
:105A30001D2B4AD03C4AB3791278134300D15DE75D
:105A40000023B3711B3373751933F35C002B00D043
:105A500054E73000FFF79AFB50E7212BA3D0012336
:105A60005840C3B29946B379002B31D12E4A2F4901
:105A7000147800932200501E8241A52302924A46C8
:105A800001200192DB0042460DF088FC002C8CD0F6
:105A90001B2373754B46002B28D03523F35C002B5A
:105AA00002D13000FFF704FD214B1B78002B00D101
:105AB0007BE7204C200009F0C9FC2000002109F000
:105AC000B1FC200009F0BAFC6FE701337375B1E750
:105AD0000123B47102934B460193A5234246012052
